Microchip MPLAB XC8 Compiler V1.32 ()

Linker command line:

--edf=C:\Program Files (x86)\Microchip\xc8\v1.32\dat\en_msgs.txt -cs \
  -h+dist/default/production\TimerCard.X.production.sym \
  --cmf=dist/default/production\TimerCard.X.production.cmf -z -Q16F1947 \
  -oC:\Users\Sethu\AppData\Local\Temp\s7tk.6 \
  -Mdist/default/production/TimerCard.X.production.map -E1 -ver=XC8 \
  -ASTACK=0204Ah-0231fh -pstack=STACK -ACONST=00h-0FFhx64 \
  -ACODE=00h-07FFhx8 -ASTRCODE=00h-03FFFh -AENTRY=00h-0FFhx64 \
  -ASTRING=00h-0FFhx64 -ACOMMON=070h-07Fh -ABANK0=020h-06Fh \
  -ABANK1=0A0h-0EFh -ABANK2=0120h-016Fh -ABANK3=01A0h-01EFh \
  -ABANK4=0220h-026Fh -ABANK5=02A0h-02EFh -ABANK6=0320h-036Fh \
  -ABANK7=03A0h-03EFh -ABANK8=0420h-046Fh -ABANK9=04A0h-04EFh \
  -ABANK10=0520h-056Fh -ABANK11=05A0h-05EFh -ABANK12=0620h-064Fh \
  -ABIGRAM=02000h-023EFh \
  -ARAM=020h-06Fh,0A0h-0EFh,0120h-016Fh,01A0h-01EFh,0220h-026Fh,02A0h-02EFh,0320h-036Fh,03A0h-03EFh,0420h-046Fh,04A0h-04EFh,0520h-056Fh,05A0h-05EFh,0620h-064Fh \
  -AABS1=020h-07Fh,0A0h-0EFh,0120h-016Fh,01A0h-01EFh,0220h-026Fh,02A0h-02EFh,0320h-036Fh,03A0h-03EFh,0420h-046Fh,04A0h-04EFh,0520h-056Fh,05A0h-05EFh,0620h-064Fh \
  -ASFR0=00h-01Fh -ASFR1=080h-09Fh -ASFR2=0100h-011Fh -ASFR3=0180h-019Fh \
  -ASFR4=0200h-021Fh -ASFR5=0280h-029Fh -ASFR6=0300h-031Fh \
  -ASFR7=0380h-039Fh -ASFR8=0400h-041Fh -ASFR9=0480h-049Fh \
  -ASFR10=0500h-051Fh -ASFR11=0580h-059Fh -ASFR12=0600h-061Fh \
  -ASFR13=0680h-06EFh -ASFR14=0700h-076Fh -ASFR15=0780h-07EFh \
  -ASFR16=0800h-086Fh -ASFR17=0880h-08EFh -ASFR18=0900h-096Fh \
  -ASFR19=0980h-09EFh -ASFR20=0A00h-0A6Fh -ASFR21=0A80h-0AEFh \
  -ASFR22=0B00h-0B6Fh -ASFR23=0B80h-0BEFh -ASFR24=0C00h-0C6Fh \
  -ASFR25=0C80h-0CEFh -ASFR26=0D00h-0D6Fh -ASFR27=0D80h-0DEFh \
  -ASFR28=0E00h-0E6Fh -ASFR29=0E80h-0EEFh -ASFR30=0F00h-0F6Fh \
  -ASFR31=0F80h-0FEFh -preset_vec=00h,intentry,init,end_init -ppowerup=CODE \
  -pcinit=CODE -pfunctab=CODE -ACONFIG=08007h-08008h -pconfig=CONFIG \
  -DCONFIG=2 -AIDLOC=08000h-08003h -pidloc=IDLOC -DIDLOC=2 \
  -AEEDATA=00h-0FFh/0F000h -peeprom_data=EEDATA -DEEDATA=2 -DCODE=2 \
  -DSTRCODE=2 -DSTRING=2 -DCONST=2 -DENTRY=2 -k \
  C:\Users\Sethu\AppData\Local\Temp\s7tk.obj \
  dist/default/production\TimerCard.X.production.obj 

Object code version is 3.11

Machine type is 16F1947



                Name                               Link     Load   Length Selector   Space Scale
C:\Users\Sethu\AppData\Local\Temp\s7tk.obj
                end_init                              2        2        2        0       0
                reset_vec                             0        0        2        0       0
dist/default/production\TimerCard.X.production.obj
                cinit                               7E8      7E8       18      FD0       0
                text16                              4A0      4A0        A      940       0
                text15                              4AA      4AA        A      954       0
                text14                              5EB      5EB       54      BD6       0
                text13                              554      554       48      AA8       0
                text12                              4E1      4E1       21      9C2       0
                text11                              473      473        3      8E6       0
                text10                              63F      63F       5D      C7E       0
                text9                               69C      69C       7E      D38       0
                text8                               502      502       25      A04       0
                text7                               4C4      4C4       1D      988       0
                text6                               527      527       2D      A4E       0
                text5                               487      487        7      90E       0
                text4                               59C      59C       4F      B38       0
                text3                               48E      48E        9      91C       0
                text2                               476      476        5      8EC       0
                text1                               4B4      4B4       10      968       0
                maintext                            71A      71A       CE      E34       0
                cstackBANK0                          40       40       1D       20       1
                cstackCOMMON                         70       70        E       70       1
                inittext                            47B      47B        6      8F6       0
                clrtext                             481      481        6      902       0
                dataBANK0                            5D       5D        9       20       1
                bssBANK0                             20       20       20       20       1
                bitbssBANK0                         348       69        2       20       1     8
                bitnvBANK0                          340       68        2       20       1     8
                nvBANK0                              66       66        2       20       1
                idataBANK0                          497      497        9      92E       0

TOTAL           Name                               Link     Load   Length     Space
        CLASS   STACK          

        CLASS   CONST          

        CLASS   CODE           
                end_init                              2        2        2         0
                cinit                               7E8      7E8       18         0
                reset_vec                             0        0        2         0
                text16                              4A0      4A0        A         0
                text15                              4AA      4AA        A         0
                text14                              5EB      5EB       54         0
                text13                              554      554       48         0
                text12                              4E1      4E1       21         0
                text11                              473      473        3         0
                text10                              63F      63F       5D         0
                text9                               69C      69C       7E         0
                text8                               502      502       25         0
                text7                               4C4      4C4       1D         0
                text6                               527      527       2D         0
                text5                               487      487        7         0
                text4                               59C      59C       4F         0
                text3                               48E      48E        9         0
                text2                               476      476        5         0
                text1                               4B4      4B4       10         0
                maintext                            71A      71A       CE         0
                inittext                            47B      47B        6         0
                clrtext                             481      481        6         0
                idataBANK0                          497      497        9         0

        CLASS   STRCODE        

        CLASS   ENTRY          

        CLASS   STRING         

        CLASS   COMMON         
                cstackCOMMON                         70       70        E         1

        CLASS   BANK0          
                cstackBANK0                          40       40       1D         1
                dataBANK0                            5D       5D        9         1
                bssBANK0                             20       20       20         1
                bitbssBANK0                         348       69        2         1
                bitnvBANK0                          340       68        2         1
                nvBANK0                              66       66        2         1

        CLASS   BANK1          

        CLASS   BANK2          

        CLASS   BANK3          

        CLASS   BANK4          

        CLASS   BANK5          

        CLASS   BANK6          

        CLASS   BANK7          

        CLASS   BANK8          

        CLASS   BANK9          

        CLASS   BANK10         

        CLASS   BANK11         

        CLASS   BANK12         

        CLASS   BIGRAM         

        CLASS   RAM            

        CLASS   ABS1           
                abs_s1                               7E       7E        2         1

        CLASS   SFR0           

        CLASS   SFR1           

        CLASS   SFR2           

        CLASS   SFR3           

        CLASS   SFR4           

        CLASS   SFR5           

        CLASS   SFR6           

        CLASS   SFR7           

        CLASS   SFR8           

        CLASS   SFR9           

        CLASS   SFR10          

        CLASS   SFR11          

        CLASS   SFR12          

        CLASS   SFR13          

        CLASS   SFR14          

        CLASS   SFR15          

        CLASS   SFR16          

        CLASS   SFR17          

        CLASS   SFR18          

        CLASS   SFR19          

        CLASS   SFR20          

        CLASS   SFR21          

        CLASS   SFR22          

        CLASS   SFR23          

        CLASS   SFR24          

        CLASS   SFR25          

        CLASS   SFR26          

        CLASS   SFR27          

        CLASS   SFR28          

        CLASS   SFR29          

        CLASS   SFR30          

        CLASS   SFR31          

        CLASS   CONFIG         

        CLASS   IDLOC          

        CLASS   EEDATA         

        CLASS   BANK31         

        CLASS   BANK30         

        CLASS   BANK29         

        CLASS   BANK28         

        CLASS   BANK27         

        CLASS   BANK26         

        CLASS   BANK25         

        CLASS   BANK24         

        CLASS   BANK23         

        CLASS   BANK22         

        CLASS   BANK21         

        CLASS   BANK20         

        CLASS   BANK19         

        CLASS   BANK18         

        CLASS   BANK17         

        CLASS   BANK16         

        CLASS   BANK15         

        CLASS   BANK14         

        CLASS   BANK13         



SEGMENTS        Name                           Load    Length   Top    Selector   Space  Class     Delta

                reset_vec                      000000  000004  000004         0       0  CODE        2
                bssBANK0                       000020  00004A  00006A        20       1  BANK0       1
                cstackCOMMON                   000070  00000E  00007E        70       1  COMMON      1
                text11                         000473  000003  000476       8E6       0  CODE        2
                text2                          000476  000005  00047B       8EC       0  CODE        2
                inittext                       00047B  000006  000481       8F6       0  CODE        2
                clrtext                        000481  000006  000487       902       0  CODE        2
                text5                          000487  000007  00048E       90E       0  CODE        2
                text3                          00048E  000009  000497       91C       0  CODE        2
                idataBANK0                     000497  000009  0004A0       92E       0  CODE        2
                text16                         0004A0  00000A  0004AA       940       0  CODE        2
                text15                         0004AA  00000A  0004B4       954       0  CODE        2
                text1                          0004B4  000010  0004C4       968       0  CODE        2
                text7                          0004C4  00001D  0004E1       988       0  CODE        2
                text12                         0004E1  000021  000502       9C2       0  CODE        2
                text8                          000502  000025  000527       A04       0  CODE        2
                text6                          000527  00002D  000554       A4E       0  CODE        2
                text13                         000554  000048  00059C       AA8       0  CODE        2
                text4                          00059C  00004F  0005EB       B38       0  CODE        2
                text14                         0005EB  000054  00063F       BD6       0  CODE        2
                text10                         00063F  00005D  00069C       C7E       0  CODE        2
                text9                          00069C  00007E  00071A       D38       0  CODE        2
                maintext                       00071A  0000CE  0007E8       E34       0  CODE        2
                cinit                          0007E8  000018  000800       FD0       0  CODE        2


UNUSED ADDRESS RANGES

        Name                Unused          Largest block    Delta
        BANK0            006A-006F              6           1
        BANK1            00A0-00EF             50           1
        BANK10           0520-056F             50           1
        BANK11           05A0-05EF             50           1
        BANK12           0620-064F             30           1
        BANK2            0120-016F             50           1
        BANK3            01A0-01EF             50           1
        BANK4            0220-026F             50           1
        BANK5            02A0-02EF             50           1
        BANK6            0320-036F             50           1
        BANK7            03A0-03EF             50           1
        BANK8            0420-046F             50           1
        BANK9            04A0-04EF             50           1
        BIGRAM           2000-23EF            3F0           1
        CODE             0004-0472            46F           2
                         0800-3FFF            800
        CONFIG           8007-8008              2           2
        CONST            0004-0472            100           2
                         0800-3FFF            100
        EEDATA           F000-F0FF            100           2
        ENTRY            0004-0472            100           2
                         0800-3FFF            100
        IDLOC            8000-8003              4           2
        RAM              006A-006F              6           1
                         00A0-00EF             50
                         0120-016F             50
                         01A0-01EF             50
                         0220-026F             50
                         02A0-02EF             50
                         0320-036F             50
                         03A0-03EF             50
                         0420-046F             50
                         04A0-04EF             50
                         0520-056F             50
                         05A0-05EF             50
                         0620-064F             30
        SFR0             0000-001F             20           1
        SFR1             0080-009F             20           1
        SFR10            0500-051F             20           1
        SFR11            0580-059F             20           1
        SFR12            0600-061F             20           1
        SFR13            0680-06EF             70           1
        SFR14            0700-076F             70           1
        SFR15            0780-07EF             70           1
        SFR16            0800-086F             70           1
        SFR17            0880-08EF             70           1
        SFR18            0900-096F             70           1
        SFR19            0980-09EF             70           1
        SFR2             0100-011F             20           1
        SFR20            0A00-0A6F             70           1
        SFR21            0A80-0AEF             70           1
        SFR22            0B00-0B6F             70           1
        SFR23            0B80-0BEF             70           1
        SFR24            0C00-0C6F             70           1
        SFR25            0C80-0CEF             70           1
        SFR26            0D00-0D6F             70           1
        SFR27            0D80-0DEF             70           1
        SFR28            0E00-0E6F             70           1
        SFR29            0E80-0EEF             70           1
        SFR3             0180-019F             20           1
        SFR30            0F00-0F6F             70           1
        SFR31            0F80-0FEF             70           1
        SFR4             0200-021F             20           1
        SFR5             0280-029F             20           1
        SFR6             0300-031F             20           1
        SFR7             0380-039F             20           1
        SFR8             0400-041F             20           1
        SFR9             0480-049F             20           1
        STACK            204A-231F            2D6           1
        STRCODE          0004-0472            46F           2
                         0800-3FFF           3800
        STRING           0004-0472            100           2
                         0800-3FFF            100

                                  Symbol Table

?___awdiv                   cstackBANK0  0046
?___awmod                   cstackBANK0  0040
?___wmul                    cstackCOMMON 0070
?_findKey                   cstackCOMMON 0070
?_get4digit                 cstackCOMMON 007C
?_getKey                    cstackCOMMON 0078
?_power                     cstackCOMMON 0076
?_readKeyboard              cstackCOMMON 0074
_AH                         bssBANK0     0024
_AH_limit                   bssBANK0     0026
_BAUD1CON                   (abs)        019F
_C                          bssBANK0     0028
_C_limit                    bssBANK0     002A
_GIE                        (abs)        005F
_I2C1Init                   text16       04A0
_I2C2Init                   text15       04AA
_LATAbits                   (abs)        010C
_LATE                       (abs)        0110
_LATEbits                   (abs)        0110
_LOCKED                     bitbssBANK0  0348
_PEIE                       (abs)        005E
_PORTB                      (abs)        000D
_RB4                        (abs)        006C
_RB5                        (abs)        006D
_RB6                        (abs)        006E
_RB7                        (abs)        006F
_RC1IE                      (abs)        048D
_RC1IF                      (abs)        008D
_RC1REG                     (abs)        0199
_RC1STA                     (abs)        019D
_RESET                      bitnvBANK0   0340
_RF0                        (abs)        1460
_RF1                        (abs)        1461
_RF2                        (abs)        1462
_RF7                        (abs)        1467
_SAFE                       bitnvBANK0   0341
_SP1BRGH                    (abs)        019C
_SP1BRGL                    (abs)        019B
_SSP1ADD                    (abs)        0212
_SSP1BUF                    (abs)        0211
_SSP1CON1                   (abs)        0215
_SSP1CON2                   (abs)        0216
_SSP1CON2bits               (abs)        0216
_SSP1STAT                   (abs)        0214
_SSP1STATbits               (abs)        0214
_SSP2ADD                    (abs)        021A
_SSP2BUF                    (abs)        0219
_SSP2CON1                   (abs)        021D
_SSP2CON2                   (abs)        021E
_SSP2CON2bits               (abs)        021E
_SSP2STAT                   (abs)        021C
_SSP2STATbits               (abs)        021C
_START                      bitbssBANK0  0349
_T1CON                      (abs)        0018
_T1GCONbits                 (abs)        0019
_TMR1IE                     (abs)        0488
_TMR1IF                     (abs)        0088
_TRISB                      (abs)        008D
_TRISC3                     (abs)        0473
_TRISC4                     (abs)        0474
_TRISC6                     (abs)        0476
_TRISC7                     (abs)        0477
_TRISD5                     (abs)        047D
_TRISD6                     (abs)        047E
_TRISEbits                  (abs)        0090
_TRISF                      (abs)        030C
_TX1REG                     (abs)        019A
_TX1STA                     (abs)        019E
_TX1STAbits                 (abs)        019E
_V                          bssBANK0     002C
_V_limit                    bssBANK0     002E
__Habs1                     abs1         0000
__Hbank0                    bank0        0000
__Hbank1                    bank1        0000
__Hbank10                   bank10       0000
__Hbank11                   bank11       0000
__Hbank12                   bank12       0000
__Hbank13                   bank13       0000
__Hbank14                   bank14       0000
__Hbank15                   bank15       0000
__Hbank16                   bank16       0000
__Hbank17                   bank17       0000
__Hbank18                   bank18       0000
__Hbank19                   bank19       0000
__Hbank2                    bank2        0000
__Hbank20                   bank20       0000
__Hbank21                   bank21       0000
__Hbank22                   bank22       0000
__Hbank23                   bank23       0000
__Hbank24                   bank24       0000
__Hbank25                   bank25       0000
__Hbank26                   bank26       0000
__Hbank27                   bank27       0000
__Hbank28                   bank28       0000
__Hbank29                   bank29       0000
__Hbank3                    bank3        0000
__Hbank30                   bank30       0000
__Hbank31                   bank31       0000
__Hbank4                    bank4        0000
__Hbank5                    bank5        0000
__Hbank6                    bank6        0000
__Hbank7                    bank7        0000
__Hbank8                    bank8        0000
__Hbank9                    bank9        0000
__Hbigram                   bigram       0000
__HbitbssBANK0              bitbssBANK0  0000
__HbitnvBANK0               bitnvBANK0   0000
__HbssBANK0                 bssBANK0     0000
__Hcinit                    cinit        0800
__Hclrtext                  clrtext      0000
__Hcode                     code         0000
__Hcommon                   common       0000
__Hconfig                   config       0000
__HcstackBANK0              cstackBANK0  0000
__HcstackCOMMON             cstackCOMMON 0000
__HdataBANK0                dataBANK0    0000
__Heeprom_data              eeprom_data  0000
__Hend_init                 end_init     0004
__Hfunctab                  functab      0000
__HidataBANK0               idataBANK0   0000
__Hidloc                    idloc        0000
__Hinit                     init         0002
__Hinittext                 inittext     0000
__Hintentry                 intentry     0002
__Hmaintext                 maintext     0000
__HnvBANK0                  nvBANK0      0000
__Hpowerup                  powerup      0000
__Hram                      ram          0000
__Hreset_vec                reset_vec    0002
__Hsfr0                     sfr0         0000
__Hsfr1                     sfr1         0000
__Hsfr10                    sfr10        0000
__Hsfr11                    sfr11        0000
__Hsfr12                    sfr12        0000
__Hsfr13                    sfr13        0000
__Hsfr14                    sfr14        0000
__Hsfr15                    sfr15        0000
__Hsfr16                    sfr16        0000
__Hsfr17                    sfr17        0000
__Hsfr18                    sfr18        0000
__Hsfr19                    sfr19        0000
__Hsfr2                     sfr2         0000
__Hsfr20                    sfr20        0000
__Hsfr21                    sfr21        0000
__Hsfr22                    sfr22        0000
__Hsfr23                    sfr23        0000
__Hsfr24                    sfr24        0000
__Hsfr25                    sfr25        0000
__Hsfr26                    sfr26        0000
__Hsfr27                    sfr27        0000
__Hsfr28                    sfr28        0000
__Hsfr29                    sfr29        0000
__Hsfr3                     sfr3         0000
__Hsfr30                    sfr30        0000
__Hsfr31                    sfr31        0000
__Hsfr4                     sfr4         0000
__Hsfr5                     sfr5         0000
__Hsfr6                     sfr6         0000
__Hsfr7                     sfr7         0000
__Hsfr8                     sfr8         0000
__Hsfr9                     sfr9         0000
__Hspace_0                  (abs)        0800
__Hspace_1                  (abs)        034A
__Hspace_2                  (abs)        0000
__Hspace_3                  (abs)        0000
__Hstack                    stack        0000
__Hstrings                  strings      0000
__Htext                     text         0000
__Labs1                     abs1         0000
__Lbank0                    bank0        0000
__Lbank1                    bank1        0000
__Lbank10                   bank10       0000
__Lbank11                   bank11       0000
__Lbank12                   bank12       0000
__Lbank13                   bank13       0000
__Lbank14                   bank14       0000
__Lbank15                   bank15       0000
__Lbank16                   bank16       0000
__Lbank17                   bank17       0000
__Lbank18                   bank18       0000
__Lbank19                   bank19       0000
__Lbank2                    bank2        0000
__Lbank20                   bank20       0000
__Lbank21                   bank21       0000
__Lbank22                   bank22       0000
__Lbank23                   bank23       0000
__Lbank24                   bank24       0000
__Lbank25                   bank25       0000
__Lbank26                   bank26       0000
__Lbank27                   bank27       0000
__Lbank28                   bank28       0000
__Lbank29                   bank29       0000
__Lbank3                    bank3        0000
__Lbank30                   bank30       0000
__Lbank31                   bank31       0000
__Lbank4                    bank4        0000
__Lbank5                    bank5        0000
__Lbank6                    bank6        0000
__Lbank7                    bank7        0000
__Lbank8                    bank8        0000
__Lbank9                    bank9        0000
__Lbigram                   bigram       0000
__LbitbssBANK0              bitbssBANK0  0000
__LbitnvBANK0               bitnvBANK0   0000
__LbssBANK0                 bssBANK0     0000
__Lcinit                    cinit        07E8
__Lclrtext                  clrtext      0000
__Lcode                     code         0000
__Lcommon                   common       0000
__Lconfig                   config       0000
__LcstackBANK0              cstackBANK0  0000
__LcstackCOMMON             cstackCOMMON 0000
__LdataBANK0                dataBANK0    0000
__Leeprom_data              eeprom_data  0000
__Lend_init                 end_init     0002
__Lfunctab                  functab      0000
__LidataBANK0               idataBANK0   0000
__Lidloc                    idloc        0000
__Linit                     init         0002
__Linittext                 inittext     0000
__Lintentry                 intentry     0002
__Lmaintext                 maintext     0000
__LnvBANK0                  nvBANK0      0000
__Lpowerup                  powerup      0000
__Lram                      ram          0000
__Lreset_vec                reset_vec    0000
__Lsfr0                     sfr0         0000
__Lsfr1                     sfr1         0000
__Lsfr10                    sfr10        0000
__Lsfr11                    sfr11        0000
__Lsfr12                    sfr12        0000
__Lsfr13                    sfr13        0000
__Lsfr14                    sfr14        0000
__Lsfr15                    sfr15        0000
__Lsfr16                    sfr16        0000
__Lsfr17                    sfr17        0000
__Lsfr18                    sfr18        0000
__Lsfr19                    sfr19        0000
__Lsfr2                     sfr2         0000
__Lsfr20                    sfr20        0000
__Lsfr21                    sfr21        0000
__Lsfr22                    sfr22        0000
__Lsfr23                    sfr23        0000
__Lsfr24                    sfr24        0000
__Lsfr25                    sfr25        0000
__Lsfr26                    sfr26        0000
__Lsfr27                    sfr27        0000
__Lsfr28                    sfr28        0000
__Lsfr29                    sfr29        0000
__Lsfr3                     sfr3         0000
__Lsfr30                    sfr30        0000
__Lsfr31                    sfr31        0000
__Lsfr4                     sfr4         0000
__Lsfr5                     sfr5         0000
__Lsfr6                     sfr6         0000
__Lsfr7                     sfr7         0000
__Lsfr8                     sfr8         0000
__Lsfr9                     sfr9         0000
__Lspace_0                  (abs)        0000
__Lspace_1                  (abs)        0000
__Lspace_2                  (abs)        0000
__Lspace_3                  (abs)        0000
__Lstack                    stack        0000
__Lstrings                  strings      0000
__Ltext                     text         0000
__S0                        (abs)        0800
__S1                        (abs)        007E
__S2                        (abs)        0000
__S3                        (abs)        0000
___awdiv                    text14       05EB
___awdiv@counter            cstackBANK0  004A
___awdiv@dividend           cstackBANK0  0048
___awdiv@divisor            cstackBANK0  0046
___awdiv@quotient           cstackBANK0  004C
___awdiv@sign               cstackBANK0  004B
___awmod                    text13       0554
___awmod@counter            cstackBANK0  0044
___awmod@dividend           cstackBANK0  0042
___awmod@divisor            cstackBANK0  0040
___awmod@sign               cstackBANK0  0045
___int_sp                   stack        0000
___latbits                  (abs)        0003
___sp                       stack        0000
___wmul                     text7        04C4
___wmul@multiplicand        cstackCOMMON 0072
___wmul@multiplier          cstackCOMMON 0070
___wmul@product             cstackCOMMON 0074
__end_of_I2C1Init           text16       04AA
__end_of_I2C2Init           text15       04B4
__end_of___awdiv            text14       063F
__end_of___awmod            text13       059C
__end_of___wmul             text7        04E1
__end_of__initialization    cinit        07FC
__end_of_delay              text12       0502
__end_of_enable_interrupts  text11       0476
__end_of_findKey            text10       069C
__end_of_get4digit          text4        05EB
__end_of_getKey             text8        0527
__end_of_init_keypad        text3        0497
__end_of_main               maintext     07E8
__end_of_power              text6        0554
__end_of_readKeyboard       text9        071A
__end_of_timer1_init        text2        047B
__end_of_uart1init          text1        04C4
__end_of_uart1send          text5        048E
__initialization            cinit        07E8
__pbitbssBANK0              bitbssBANK0  0348
__pbitnvBANK0               bitnvBANK0   0340
__pbssBANK0                 bssBANK0     0020
__pcstackBANK0              cstackBANK0  0040
__pcstackCOMMON             cstackCOMMON 0070
__pdataBANK0                dataBANK0    005D
__pidataBANK0               idataBANK0   0497
__pmaintext                 maintext     071A
__pnvBANK0                  nvBANK0      0066
__ptext1                    text1        04B4
__ptext10                   text10       063F
__ptext11                   text11       0473
__ptext12                   text12       04E1
__ptext13                   text13       0554
__ptext14                   text14       05EB
__ptext15                   text15       04AA
__ptext16                   text16       04A0
__ptext2                    text2        0476
__ptext3                    text3        048E
__ptext4                    text4        059C
__ptext5                    text5        0487
__ptext6                    text6        0527
__ptext7                    text7        04C4
__ptext8                    text8        0502
__ptext9                    text9        069C
__size_of_I2C1Init          (abs)        0000
__size_of_I2C2Init          (abs)        0000
__size_of___awdiv           (abs)        0000
__size_of___awmod           (abs)        0000
__size_of___wmul            (abs)        0000
__size_of_delay             (abs)        0000
__size_of_enable_interrupts (abs)        0000
__size_of_findKey           (abs)        0000
__size_of_get4digit         (abs)        0000
__size_of_getKey            (abs)        0000
__size_of_init_keypad       (abs)        0000
__size_of_main              (abs)        0000
__size_of_power             (abs)        0000
__size_of_readKeyboard      (abs)        0000
__size_of_timer1_init       (abs)        0000
__size_of_uart1init         (abs)        0000
__size_of_uart1send         (abs)        0000
_cycles                     bssBANK0     0030
_debounce_time              nvBANK0      0066
_delay                      text12       04E1
_enable_interrupts          text11       0473
_findKey                    text10       063F
_get4digit                  text4        059C
_get4digit$1019             cstackBANK0  0040
_getKey                     text8        0502
_init_keypad                text3        048E
_k                          bssBANK0     0032
_main                       maintext     071A
_mode                       dataBANK0    0065
_off_time                   bssBANK0     0034
_on_time                    bssBANK0     0036
_power                      text6        0527
_readKeyboard               text9        069C
_recall                     bssBANK0     0038
_rsp1                       bssBANK0     003A
_rsp2                       bssBANK0     003C
_t                          bssBANK0     0020
_timer1_init                text2        0476
_trip                       bssBANK0     003E
_uart1init                  text1        04B4
_uart1send                  text5        0487
btemp                       (abs)        007E
clear_ram0                  clrtext      0481
delay@i                     cstackCOMMON 0070
delay@j                     cstackCOMMON 007A
end_of_initialization       cinit        07FC
findKey@a                   cstackCOMMON 0070
findKey@b                   cstackCOMMON 0072
get4digit@i                 cstackBANK0  0046
get4digit@result            cstackBANK0  0042
get4digit@temp              cstackBANK0  0044
getKey@f                    cstackCOMMON 007A
init_DS1307@F4953           dataBANK0    005D
init_ram                    inittext     047B
intlevel0                   functab      0000
intlevel1                   functab      0000
intlevel2                   functab      0000
intlevel3                   functab      0000
intlevel4                   functab      0000
intlevel5                   functab      0000
ltemp                       (abs)        007E
ltemp0                      (abs)        007E
ltemp1                      (abs)        0082
ltemp2                      (abs)        0086
ltemp3                      (abs)        0080
main@f                      cstackBANK0  0059
main@i                      cstackBANK0  0056
main@i_350                  cstackBANK0  005B
main@press                  cstackBANK0  0054
main@temp                   cstackBANK0  0057
main@total_cycles           cstackBANK0  0052
main@tp                     cstackBANK0  0050
pic14e$flags                (abs)        007E
power@a                     cstackCOMMON 0076
power@b                     cstackCOMMON 0078
power@temp                  cstackCOMMON 007A
readKeyboard@i              cstackCOMMON 0076
reset_vec                   reset_vec    0000
stackhi                     (abs)        231F
stacklo                     (abs)        204A
start                       init         0002
start_initialization        cinit        07E8
ttemp                       (abs)        007E
ttemp0                      (abs)        007E
ttemp1                      (abs)        0081
ttemp2                      (abs)        0084
ttemp3                      (abs)        0087
ttemp4                      (abs)        007F
uart1send@TX_BYTE           cstackCOMMON 0070
wtemp                       (abs)        007E
wtemp0                      (abs)        007E
wtemp1                      (abs)        0080
wtemp2                      (abs)        0082
wtemp3                      (abs)        0084
wtemp4                      (abs)        0086
wtemp5                      (abs)        0088
wtemp6                      (abs)        007F


FUNCTION INFORMATION:

 *************** function _main *****************
 Defined at:
		line 38 in file "newmain.c"
 Parameters:    Size  Location     Type
		None
 Auto vars:     Size  Location     Type
  temp            2   23[BANK0 ] int 
  i               2   27[BANK0 ] int 
  f               2   25[BANK0 ] int 
  press           2   20[BANK0 ] int 
  total_cycles    2   18[BANK0 ] int 
  tp              2   16[BANK0 ] int 
  t_time          2    0        unsigned int 
  time            2    0        unsigned int 
  i               1   22[BANK0 ] unsigned char 
 Return value:  Size  Location     Type
		None               void
 Registers used:
		wreg, status,2, status,0, pclath, cstack
 Tracked objects:
		On entry : 
		On exit  : 
		Unchanged: 
 Data sizes:     COMMON   BANK0   BANK1   BANK2   BANK3   BANK4   BANK5   BANK6   BANK7   BANK8   BANK9  BANK10  BANK11  BANK12
      Params:         0       0       0       0       0       0       0       0       0       0       0       0       0       0
      Locals:         0      13       0       0       0       0       0       0       0       0       0       0       0       0
      Temps:          0       2       0       0       0       0       0       0       0       0       0       0       0       0
      Totals:         0      15       0       0       0       0       0       0       0       0       0       0       0       0
Total ram usage:       15 bytes
 Hardware stack levels required when called:    4
 This function calls:
		_I2C1Init
		_I2C2Init
		___awdiv
		___awmod
		_delay
		_enable_interrupts
		_get4digit
		_init_keypad
		_power
		_timer1_init
		_uart1init
		_uart1send
 This function is called by:
		Startup code after reset
 This function uses a non-reentrant model


 *************** function _uart1init *****************
 Defined at:
		line 3 in file "uart.c"
 Parameters:    Size  Location     Type
		None
 Auto vars:     Size  Location     Type
		None
 Return value:  Size  Location     Type
		None               void
 Registers used:
		wreg, status,2
 Tracked objects:
		On entry : 
		On exit  : 
		Unchanged: 
 Data sizes:     COMMON   BANK0   BANK1   BANK2   BANK3   BANK4   BANK5   BANK6   BANK7   BANK8   BANK9  BANK10  BANK11  BANK12
      Params:         0       0       0       0       0       0       0       0       0       0       0       0       0       0
      Locals:         0       0       0       0       0       0       0       0       0       0       0       0       0       0
      Temps:          0       0       0       0       0       0       0       0       0       0       0       0       0       0
      Totals:         0       0       0       0       0       0       0       0       0       0       0       0       0       0
Total ram usage:        0 bytes
 Hardware stack levels used:    1
 This function calls:
		Nothing
 This function is called by:
		_main
 This function uses a non-reentrant model


 *************** function _timer1_init *****************
 Defined at:
		line 16 in file "functions.c"
 Parameters:    Size  Location     Type
		None
 Auto vars:     Size  Location     Type
		None
 Return value:  Size  Location     Type
		None               void
 Registers used:
		wreg
 Tracked objects:
		On entry : 
		On exit  : 
		Unchanged: 
 Data sizes:     COMMON   BANK0   BANK1   BANK2   BANK3   BANK4   BANK5   BANK6   BANK7   BANK8   BANK9  BANK10  BANK11  BANK12
      Params:         0       0       0       0       0       0       0       0       0       0       0       0       0       0
      Locals:         0       0       0       0       0       0       0       0       0       0       0       0       0       0
      Temps:          0       0       0       0       0       0       0       0       0       0       0       0       0       0
      Totals:         0       0       0       0       0       0       0       0       0       0       0       0       0       0
Total ram usage:        0 bytes
 Hardware stack levels used:    1
 This function calls:
		Nothing
 This function is called by:
		_main
 This function uses a non-reentrant model


 *************** function _init_keypad *****************
 Defined at:
		line 6 in file "keypad.c"
 Parameters:    Size  Location     Type
		None
 Auto vars:     Size  Location     Type
		None
 Return value:  Size  Location     Type
		None               void
 Registers used:
		wreg
 Tracked objects:
		On entry : 
		On exit  : 
		Unchanged: 
 Data sizes:     COMMON   BANK0   BANK1   BANK2   BANK3   BANK4   BANK5   BANK6   BANK7   BANK8   BANK9  BANK10  BANK11  BANK12
      Params:         0       0       0       0       0       0       0       0       0       0       0       0       0       0
      Locals:         0       0       0       0       0       0       0       0       0       0       0       0       0       0
      Temps:          0       0       0       0       0       0       0       0       0       0       0       0       0       0
      Totals:         0       0       0       0       0       0       0       0       0       0       0       0       0       0
Total ram usage:        0 bytes
 Hardware stack levels used:    1
 This function calls:
		Nothing
 This function is called by:
		_main
 This function uses a non-reentrant model


 *************** function _get4digit *****************
 Defined at:
		line 67 in file "keypad.c"
 Parameters:    Size  Location     Type
		None
 Auto vars:     Size  Location     Type
  i               2    6[BANK0 ] int 
  temp            2    4[BANK0 ] int 
  result          2    2[BANK0 ] int 
 Return value:  Size  Location     Type
                  2   12[COMMON] int 
 Registers used:
		wreg, status,2, status,0, pclath, cstack
 Tracked objects:
		On entry : 
		On exit  : 
		Unchanged: 
 Data sizes:     COMMON   BANK0   BANK1   BANK2   BANK3   BANK4   BANK5   BANK6   BANK7   BANK8   BANK9  BANK10  BANK11  BANK12
      Params:         2       0       0       0       0       0       0       0       0       0       0       0       0       0
      Locals:         0       8       0       0       0       0       0       0       0       0       0       0       0       0
      Temps:          0       0       0       0       0       0       0       0       0       0       0       0       0       0
      Totals:         2       8       0       0       0       0       0       0       0       0       0       0       0       0
Total ram usage:       10 bytes
 Hardware stack levels used:    1
 Hardware stack levels required when called:    3
 This function calls:
		___wmul
		_getKey
		_power
		_uart1send
 This function is called by:
		_main
 This function uses a non-reentrant model


 *************** function _uart1send *****************
 Defined at:
		line 15 in file "uart.c"
 Parameters:    Size  Location     Type
  TX_BYTE         1    wreg     unsigned char 
 Auto vars:     Size  Location     Type
  TX_BYTE         1    0[COMMON] unsigned char 
 Return value:  Size  Location     Type
		None               void
 Registers used:
		wreg
 Tracked objects:
		On entry : 
		On exit  : 
		Unchanged: 
 Data sizes:     COMMON   BANK0   BANK1   BANK2   BANK3   BANK4   BANK5   BANK6   BANK7   BANK8   BANK9  BANK10  BANK11  BANK12
      Params:         0       0       0       0       0       0       0       0       0       0       0       0       0       0
      Locals:         1       0       0       0       0       0       0       0       0       0       0       0       0       0
      Temps:          0       0       0       0       0       0       0       0       0       0       0       0       0       0
      Totals:         1       0       0       0       0       0       0       0       0       0       0       0       0       0
Total ram usage:        1 bytes
 Hardware stack levels used:    1
 This function calls:
		Nothing
 This function is called by:
		_main
		_get4digit
		_pc_write
 This function uses a non-reentrant model


 *************** function _power *****************
 Defined at:
		line 40 in file "functions.c"
 Parameters:    Size  Location     Type
  a               2    6[COMMON] int 
  b               2    8[COMMON] int 
 Auto vars:     Size  Location     Type
  temp            2   10[COMMON] int 
 Return value:  Size  Location     Type
                  2    6[COMMON] int 
 Registers used:
		wreg, status,2, status,0, pclath, cstack
 Tracked objects:
		On entry : 
		On exit  : 
		Unchanged: 
 Data sizes:     COMMON   BANK0   BANK1   BANK2   BANK3   BANK4   BANK5   BANK6   BANK7   BANK8   BANK9  BANK10  BANK11  BANK12
      Params:         4       0       0       0       0       0       0       0       0       0       0       0       0       0
      Locals:         2       0       0       0       0       0       0       0       0       0       0       0       0       0
      Temps:          0       0       0       0       0       0       0       0       0       0       0       0       0       0
      Totals:         6       0       0       0       0       0       0       0       0       0       0       0       0       0
Total ram usage:        6 bytes
 Hardware stack levels used:    1
 Hardware stack levels required when called:    1
 This function calls:
		___wmul
 This function is called by:
		_main
		_get4digit
 This function uses a non-reentrant model


 *************** function ___wmul *****************
 Defined at:
		line 15 in file "C:\Program Files (x86)\Microchip\xc8\v1.32\sources\common\Umul16.c"
 Parameters:    Size  Location     Type
  multiplier      2    0[COMMON] unsigned int 
  multiplicand    2    2[COMMON] unsigned int 
 Auto vars:     Size  Location     Type
  product         2    4[COMMON] unsigned int 
 Return value:  Size  Location     Type
                  2    0[COMMON] unsigned int 
 Registers used:
		wreg, status,2, status,0
 Tracked objects:
		On entry : 
		On exit  : 
		Unchanged: 
 Data sizes:     COMMON   BANK0   BANK1   BANK2   BANK3   BANK4   BANK5   BANK6   BANK7   BANK8   BANK9  BANK10  BANK11  BANK12
      Params:         4       0       0       0       0       0       0       0       0       0       0       0       0       0
      Locals:         2       0       0       0       0       0       0       0       0       0       0       0       0       0
      Temps:          0       0       0       0       0       0       0       0       0       0       0       0       0       0
      Totals:         6       0       0       0       0       0       0       0       0       0       0       0       0       0
Total ram usage:        6 bytes
 Hardware stack levels used:    1
 This function calls:
		Nothing
 This function is called by:
		_power
		_get4digit
		_DS1307_get_time
 This function uses a non-reentrant model


 *************** function _getKey *****************
 Defined at:
		line 58 in file "keypad.c"
 Parameters:    Size  Location     Type
		None
 Auto vars:     Size  Location     Type
  f               2   10[COMMON] int 
  temp            2    0        int 
 Return value:  Size  Location     Type
                  2    8[COMMON] int 
 Registers used:
		wreg, status,2, status,0, pclath, cstack
 Tracked objects:
		On entry : 
		On exit  : 
		Unchanged: 
 Data sizes:     COMMON   BANK0   BANK1   BANK2   BANK3   BANK4   BANK5   BANK6   BANK7   BANK8   BANK9  BANK10  BANK11  BANK12
      Params:         2       0       0       0       0       0       0       0       0       0       0       0       0       0
      Locals:         2       0       0       0       0       0       0       0       0       0       0       0       0       0
      Temps:          0       0       0       0       0       0       0       0       0       0       0       0       0       0
      Totals:         4       0       0       0       0       0       0       0       0       0       0       0       0       0
Total ram usage:        4 bytes
 Hardware stack levels used:    1
 Hardware stack levels required when called:    2
 This function calls:
		_readKeyboard
 This function is called by:
		_get4digit
 This function uses a non-reentrant model


 *************** function _readKeyboard *****************
 Defined at:
		line 41 in file "keypad.c"
 Parameters:    Size  Location     Type
		None
 Auto vars:     Size  Location     Type
  i               2    6[COMMON] unsigned int 
 Return value:  Size  Location     Type
                  2    4[COMMON] int 
 Registers used:
		wreg, status,2, status,0, pclath, cstack
 Tracked objects:
		On entry : 
		On exit  : 
		Unchanged: 
 Data sizes:     COMMON   BANK0   BANK1   BANK2   BANK3   BANK4   BANK5   BANK6   BANK7   BANK8   BANK9  BANK10  BANK11  BANK12
      Params:         2       0       0       0       0       0       0       0       0       0       0       0       0       0
      Locals:         2       0       0       0       0       0       0       0       0       0       0       0       0       0
      Temps:          0       0       0       0       0       0       0       0       0       0       0       0       0       0
      Totals:         4       0       0       0       0       0       0       0       0       0       0       0       0       0
Total ram usage:        4 bytes
 Hardware stack levels used:    1
 Hardware stack levels required when called:    1
 This function calls:
		_findKey
 This function is called by:
		_getKey
 This function uses a non-reentrant model


 *************** function _findKey *****************
 Defined at:
		line 10 in file "keypad.c"
 Parameters:    Size  Location     Type
  a               2    0[COMMON] int 
  b               2    2[COMMON] int 
 Auto vars:     Size  Location     Type
		None
 Return value:  Size  Location     Type
                  2    0[COMMON] int 
 Registers used:
		wreg, status,2, status,0
 Tracked objects:
		On entry : 
		On exit  : 
		Unchanged: 
 Data sizes:     COMMON   BANK0   BANK1   BANK2   BANK3   BANK4   BANK5   BANK6   BANK7   BANK8   BANK9  BANK10  BANK11  BANK12
      Params:         4       0       0       0       0       0       0       0       0       0       0       0       0       0
      Locals:         0       0       0       0       0       0       0       0       0       0       0       0       0       0
      Temps:          0       0       0       0       0       0       0       0       0       0       0       0       0       0
      Totals:         4       0       0       0       0       0       0       0       0       0       0       0       0       0
Total ram usage:        4 bytes
 Hardware stack levels used:    1
 This function calls:
		Nothing
 This function is called by:
		_readKeyboard
 This function uses a non-reentrant model


 *************** function _enable_interrupts *****************
 Defined at:
		line 8 in file "functions.c"
 Parameters:    Size  Location     Type
		None
 Auto vars:     Size  Location     Type
		None
 Return value:  Size  Location     Type
		None               void
 Registers used:
		None
 Tracked objects:
		On entry : 
		On exit  : 
		Unchanged: 
 Data sizes:     COMMON   BANK0   BANK1   BANK2   BANK3   BANK4   BANK5   BANK6   BANK7   BANK8   BANK9  BANK10  BANK11  BANK12
      Params:         0       0       0       0       0       0       0       0       0       0       0       0       0       0
      Locals:         0       0       0       0       0       0       0       0       0       0       0       0       0       0
      Temps:          0       0       0       0       0       0       0       0       0       0       0       0       0       0
      Totals:         0       0       0       0       0       0       0       0       0       0       0       0       0       0
Total ram usage:        0 bytes
 Hardware stack levels used:    1
 This function calls:
		Nothing
 This function is called by:
		_main
 This function uses a non-reentrant model


 *************** function _delay *****************
 Defined at:
		line 4 in file "functions.c"
 Parameters:    Size  Location     Type
  i               4    0[COMMON] unsigned long 
 Auto vars:     Size  Location     Type
  j               2   10[COMMON] unsigned int 
 Return value:  Size  Location     Type
		None               void
 Registers used:
		wreg, status,2
 Tracked objects:
		On entry : 
		On exit  : 
		Unchanged: 
 Data sizes:     COMMON   BANK0   BANK1   BANK2   BANK3   BANK4   BANK5   BANK6   BANK7   BANK8   BANK9  BANK10  BANK11  BANK12
      Params:         4       0       0       0       0       0       0       0       0       0       0       0       0       0
      Locals:         2       0       0       0       0       0       0       0       0       0       0       0       0       0
      Temps:          6       0       0       0       0       0       0       0       0       0       0       0       0       0
      Totals:        12       0       0       0       0       0       0       0       0       0       0       0       0       0
Total ram usage:       12 bytes
 Hardware stack levels used:    1
 This function calls:
		Nothing
 This function is called by:
		_main
		_write_74HC595_1
		_write_74HC595_2
 This function uses a non-reentrant model


 *************** function ___awmod *****************
 Defined at:
		line 6 in file "C:\Program Files (x86)\Microchip\xc8\v1.32\sources\common\awmod.c"
 Parameters:    Size  Location     Type
  divisor         2    0[BANK0 ] int 
  dividend        2    2[BANK0 ] int 
 Auto vars:     Size  Location     Type
  sign            1    5[BANK0 ] unsigned char 
  counter         1    4[BANK0 ] unsigned char 
 Return value:  Size  Location     Type
                  2    0[BANK0 ] int 
 Registers used:
		wreg, status,2, status,0
 Tracked objects:
		On entry : 
		On exit  : 
		Unchanged: 
 Data sizes:     COMMON   BANK0   BANK1   BANK2   BANK3   BANK4   BANK5   BANK6   BANK7   BANK8   BANK9  BANK10  BANK11  BANK12
      Params:         0       4       0       0       0       0       0       0       0       0       0       0       0       0
      Locals:         0       2       0       0       0       0       0       0       0       0       0       0       0       0
      Temps:          1       0       0       0       0       0       0       0       0       0       0       0       0       0
      Totals:         1       6       0       0       0       0       0       0       0       0       0       0       0       0
Total ram usage:        7 bytes
 Hardware stack levels used:    1
 This function calls:
		Nothing
 This function is called by:
		_main
 This function uses a non-reentrant model


 *************** function ___awdiv *****************
 Defined at:
		line 6 in file "C:\Program Files (x86)\Microchip\xc8\v1.32\sources\common\awdiv.c"
 Parameters:    Size  Location     Type
  divisor         2    6[BANK0 ] int 
  dividend        2    8[BANK0 ] int 
 Auto vars:     Size  Location     Type
  quotient        2   12[BANK0 ] int 
  sign            1   11[BANK0 ] unsigned char 
  counter         1   10[BANK0 ] unsigned char 
 Return value:  Size  Location     Type
                  2    6[BANK0 ] int 
 Registers used:
		wreg, status,2, status,0
 Tracked objects:
		On entry : 
		On exit  : 
		Unchanged: 
 Data sizes:     COMMON   BANK0   BANK1   BANK2   BANK3   BANK4   BANK5   BANK6   BANK7   BANK8   BANK9  BANK10  BANK11  BANK12
      Params:         0       4       0       0       0       0       0       0       0       0       0       0       0       0
      Locals:         0       4       0       0       0       0       0       0       0       0       0       0       0       0
      Temps:          1       0       0       0       0       0       0       0       0       0       0       0       0       0
      Totals:         1       8       0       0       0       0       0       0       0       0       0       0       0       0
Total ram usage:        9 bytes
 Hardware stack levels used:    1
 This function calls:
		Nothing
 This function is called by:
		_main
 This function uses a non-reentrant model


 *************** function _I2C2Init *****************
 Defined at:
		line 139 in file "i2c.c"
 Parameters:    Size  Location     Type
		None
 Auto vars:     Size  Location     Type
		None
 Return value:  Size  Location     Type
		None               void
 Registers used:
		wreg
 Tracked objects:
		On entry : 
		On exit  : 
		Unchanged: 
 Data sizes:     COMMON   BANK0   BANK1   BANK2   BANK3   BANK4   BANK5   BANK6   BANK7   BANK8   BANK9  BANK10  BANK11  BANK12
      Params:         0       0       0       0       0       0       0       0       0       0       0       0       0       0
      Locals:         0       0       0       0       0       0       0       0       0       0       0       0       0       0
      Temps:          0       0       0       0       0       0       0       0       0       0       0       0       0       0
      Totals:         0       0       0       0       0       0       0       0       0       0       0       0       0       0
Total ram usage:        0 bytes
 Hardware stack levels used:    1
 This function calls:
		Nothing
 This function is called by:
		_main
 This function uses a non-reentrant model


 *************** function _I2C1Init *****************
 Defined at:
		line 9 in file "i2c.c"
 Parameters:    Size  Location     Type
		None
 Auto vars:     Size  Location     Type
		None
 Return value:  Size  Location     Type
		None               void
 Registers used:
		wreg
 Tracked objects:
		On entry : 
		On exit  : 
		Unchanged: 
 Data sizes:     COMMON   BANK0   BANK1   BANK2   BANK3   BANK4   BANK5   BANK6   BANK7   BANK8   BANK9  BANK10  BANK11  BANK12
      Params:         0       0       0       0       0       0       0       0       0       0       0       0       0       0
      Locals:         0       0       0       0       0       0       0       0       0       0       0       0       0       0
      Temps:          0       0       0       0       0       0       0       0       0       0       0       0       0       0
      Totals:         0       0       0       0       0       0       0       0       0       0       0       0       0       0
Total ram usage:        0 bytes
 Hardware stack levels used:    1
 This function calls:
		Nothing
 This function is called by:
		_main
 This function uses a non-reentrant model



MODULE INFORMATION

Module		Function		Class		Link	Load	Size
C:\Program Files (x86)\Microchip\xc8\v1.32\sources\common\awmod.c
		___awmod       		CODE           	0554	0000	72

C:\Program Files (x86)\Microchip\xc8\v1.32\sources\common\awmod.c estimated size: 72

keypad.c
		_readKeyboard  		CODE           	069C	0000	126
		_findKey       		CODE           	063F	0000	93
		_init_keypad   		CODE           	048E	0000	9
		_getKey        		CODE           	0502	0000	37
		_get4digit     		CODE           	059C	0000	79

keypad.c estimated size: 344

uart.c
		_uart1init     		CODE           	04B4	0000	16
		_uart1send     		CODE           	0487	0000	7

uart.c estimated size: 23

i2c.c
		_I2C1Init      		CODE           	04A0	0000	10
		_I2C2Init      		CODE           	04AA	0000	10

i2c.c estimated size: 20

functions.c
		_power         		CODE           	0527	0000	45
		_delay         		CODE           	04E1	0000	33
		_enable_interru		CODE           	0473	0000	3
		_timer1_init   		CODE           	0476	0000	5

functions.c estimated size: 86

newmain.c
		_main          		CODE           	071A	0000	206

newmain.c estimated size: 206

C:\Program Files (x86)\Microchip\xc8\v1.32\sources\common\awdiv.c
		___awdiv       		CODE           	05EB	0000	84

C:\Program Files (x86)\Microchip\xc8\v1.32\sources\common\awdiv.c estimated size: 84

C:\Program Files (x86)\Microchip\xc8\v1.32\sources\common\Umul16.c
		___wmul        		CODE           	04C4	0000	29

C:\Program Files (x86)\Microchip\xc8\v1.32\sources\common\Umul16.c estimated size: 29

shared
		__initializatio		CODE           	07E8	0000	20

shared estimated size: 20

